{
  "_format": "hh-sol-artifact-1",
  "contractName": "Transactions",
  "sourceName": "contracts/Transactions.sol",
  "abi": [
    {
      "anonymous": false,
      "inputs": [
        {
          "indexed": false,
          "internalType": "address",
          "name": "from",
          "type": "address"
        },
        {
          "indexed": false,
          "internalType": "address",
          "name": "reciever",
          "type": "address"
        },
        {
          "indexed": false,
          "internalType": "uint256",
          "name": "amount",
          "type": "uint256"
        },
        {
          "indexed": false,
          "internalType": "string",
          "name": "message",
          "type": "string"
        },
        {
          "indexed": false,
          "internalType": "uint256",
          "name": "timestamp",
          "type": "uint256"
        },
        {
          "indexed": false,
          "internalType": "string",
          "name": "keyword",
          "type": "string"
        }
      ],
      "name": "Transfer",
      "type": "event"
    },
    {
      "inputs": [
        {
          "internalType": "address payable",
          "name": "recipient",
          "type": "address"
        },
        {
          "internalType": "string",
          "name": "contact_name",
          "type": "string"
        }
      ],
      "name": "addContact",
      "outputs": [],
      "stateMutability": "nonpayable",
      "type": "function"
    },
    {
      "inputs": [
        {
          "internalType": "address payable",
          "name": "reciever",
          "type": "address"
        },
        {
          "internalType": "uint256",
          "name": "amount",
          "type": "uint256"
        },
        {
          "internalType": "string",
          "name": "message",
          "type": "string"
        },
        {
          "internalType": "string",
          "name": "keyword",
          "type": "string"
        }
      ],
      "name": "addToBlockchain",
      "outputs": [],
      "stateMutability": "nonpayable",
      "type": "function"
    },
    {
      "inputs": [],
      "name": "getAllContacts",
      "outputs": [
        {
          "components": [
            {
              "internalType": "string",
              "name": "name",
              "type": "string"
            },
            {
              "internalType": "address payable",
              "name": "contactAddress",
              "type": "address"
            }
          ],
          "internalType": "struct Transactions.Contact[]",
          "name": "",
          "type": "tuple[]"
        }
      ],
      "stateMutability": "view",
      "type": "function"
    },
    {
      "inputs": [],
      "name": "getAllTransactions",
      "outputs": [
        {
          "components": [
            {
              "internalType": "address",
              "name": "sender",
              "type": "address"
            },
            {
              "internalType": "address",
              "name": "reciever",
              "type": "address"
            },
            {
              "internalType": "uint256",
              "name": "amount",
              "type": "uint256"
            },
            {
              "internalType": "string",
              "name": "message",
              "type": "string"
            },
            {
              "internalType": "uint256",
              "name": "timestamp",
              "type": "uint256"
            },
            {
              "internalType": "string",
              "name": "keyword",
              "type": "string"
            }
          ],
          "internalType": "struct Transactions.TransferStruct[]",
          "name": "",
          "type": "tuple[]"
        }
      ],
      "stateMutability": "view",
      "type": "function"
    },
    {
      "inputs": [
        {
          "internalType": "address",
          "name": "person",
          "type": "address"
        }
      ],
      "name": "getPin",
      "outputs": [
        {
          "internalType": "uint256",
          "name": "",
          "type": "uint256"
        }
      ],
      "stateMutability": "view",
      "type": "function"
    },
    {
      "inputs": [],
      "name": "getTransactionCount",
      "outputs": [
        {
          "internalType": "uint256",
          "name": "",
          "type": "uint256"
        }
      ],
      "stateMutability": "view",
      "type": "function"
    },
    {
      "inputs": [
        {
          "internalType": "uint256",
          "name": "number",
          "type": "uint256"
        }
      ],
      "name": "setPin",
      "outputs": [],
      "stateMutability": "nonpayable",
      "type": "function"
    },
    {
      "inputs": [
        {
          "internalType": "address",
          "name": "",
          "type": "address"
        }
      ],
      "name": "users",
      "outputs": [
        {
          "internalType": "address",
          "name": "id",
          "type": "address"
        },
        {
          "internalType": "uint256",
          "name": "transactionCount",
          "type": "uint256"
        },
        {
          "internalType": "uint256",
          "name": "pin",
          "type": "uint256"
        }
      ],
      "stateMutability": "view",
      "type": "function"
    }
  ],
  "bytecode": "0x608060405234801561001057600080fd5b50611555806100206000396000f3fe608060405234801561001057600080fd5b50600436106100885760003560e01c8063baac748c1161005b578063baac748c1461012b578063c444816414610147578063cc2d7ead14610163578063ef1d6ddd1461017f57610088565b806327506f531461008d5780632e7700f0146100ab578063a303be8f146100c9578063a87430ba146100f9575b600080fd5b61009561019d565b6040516100a291906111b1565b60405180910390f35b6100b3610420565b6040516100c091906111d3565b60405180910390f35b6100e360048036038101906100de9190610d05565b61046a565b6040516100f091906111d3565b60405180910390f35b610113600480360381019061010e9190610d05565b6104b6565b60405161012293929190611158565b60405180910390f35b61014560048036038101906101409190610e15565b610500565b005b610161600480360381019061015c9190610d2e565b61054a565b005b61017d60048036038101906101789190610d82565b610650565b005b610187610a34565b604051610194919061118f565b60405180910390f35b6060600160003373ffffffffffffffffffffffffffffffffffffffff1673ffffffffffffffffffffffffffffffffffffffff168152602001908152602001600020600201805480602002602001604051908101604052809291908181526020016000905b8282101561041757838290600052602060002090600602016040518060c00160405290816000820160009054906101000a900473ffffffffffffffffffffffffffffffffffffffff1673ffffffffffffffffffffffffffffffffffffffff1673ffffffffffffffffffffffffffffffffffffffff1681526020016001820160009054906101000a900473ffffffffffffffffffffffffffffffffffffffff1673ffffffffffffffffffffffffffffffffffffffff1673ffffffffffffffffffffffffffffffffffffffff168152602001600282015481526020016003820180546102ea9061140a565b80601f01602080910402602001604051908101604052809291908181526020018280546103169061140a565b80156103635780601f1061033857610100808354040283529160200191610363565b820191906000526020600020905b81548152906001019060200180831161034657829003601f168201915b50505050508152602001600482015481526020016005820180546103869061140a565b80601f01602080910402602001604051908101604052809291908181526020018280546103b29061140a565b80156103ff5780601f106103d4576101008083540402835291602001916103ff565b820191906000526020600020905b8154815290600101906020018083116103e257829003601f168201915b50505050508152505081526020019060010190610201565b50505050905090565b6000600160003373ffffffffffffffffffffffffffffffffffffffff1673ffffffffffffffffffffffffffffffffffffffff16815260200190815260200160002060010154905090565b6000600160008373ffffffffffffffffffffffffffffffffffffffff1673ffffffffffffffffffffffffffffffffffffffff168152602001908152602001600020600401549050919050565b60016020528060005260406000206000915090508060000160009054906101000a900473ffffffffffffffffffffffffffffffffffffffff16908060010154908060040154905083565b80600160003373ffffffffffffffffffffffffffffffffffffffff1673ffffffffffffffffffffffffffffffffffffffff1681526020019081526020016000206004018190555050565b600060405180604001604052808381526020018473ffffffffffffffffffffffffffffffffffffffff168152509050600160003373ffffffffffffffffffffffffffffffffffffffff1673ffffffffffffffffffffffffffffffffffffffff1681526020019081526020016000206003018190806001815401808255809150506001900390600052602060002090600202016000909190919091506000820151816000019080519060200190610601929190610bbb565b5060208201518160010160006101000a81548173ffffffffffffffffffffffffffffffffffffffff021916908373ffffffffffffffffffffffffffffffffffffffff1602179055505050505050565b60018060003373ffffffffffffffffffffffffffffffffffffffff1673ffffffffffffffffffffffffffffffffffffffff16815260200190815260200160002060010160008282546106a291906112ee565b92505081905550600160003373ffffffffffffffffffffffffffffffffffffffff1673ffffffffffffffffffffffffffffffffffffffff1681526020019081526020016000206002016040518060c001604052803373ffffffffffffffffffffffffffffffffffffffff1681526020018673ffffffffffffffffffffffffffffffffffffffff16815260200185815260200184815260200142815260200183815250908060018154018082558091505060019003906000526020600020906006020160009091909190915060008201518160000160006101000a81548173ffffffffffffffffffffffffffffffffffffffff021916908373ffffffffffffffffffffffffffffffffffffffff16021790555060208201518160010160006101000a81548173ffffffffffffffffffffffffffffffffffffffff021916908373ffffffffffffffffffffffffffffffffffffffff160217905550604082015181600201556060820151816003019080519060200190610821929190610bbb565b506080820151816004015560a0820151816005019080519060200190610848929190610bbb565b505050600160008573ffffffffffffffffffffffffffffffffffffffff1673ffffffffffffffffffffffffffffffffffffffff1681526020019081526020016000206002016040518060c001604052803373ffffffffffffffffffffffffffffffffffffffff1681526020018673ffffffffffffffffffffffffffffffffffffffff16815260200185815260200184815260200142815260200183815250908060018154018082558091505060019003906000526020600020906006020160009091909190915060008201518160000160006101000a81548173ffffffffffffffffffffffffffffffffffffffff021916908373ffffffffffffffffffffffffffffffffffffffff16021790555060208201518160010160006101000a81548173ffffffffffffffffffffffffffffffffffffffff021916908373ffffffffffffffffffffffffffffffffffffffff1602179055506040820151816002015560608201518160030190805190602001906109c3929190610bbb565b506080820151816004015560a08201518160050190805190602001906109ea929190610bbb565b5050507f416cfa4330a4565f45c2fd2dd4826a83a37443aba2ce6f79477c7355afac35fa338585854286604051610a26969594939291906110e9565b60405180910390a150505050565b6060600160003373ffffffffffffffffffffffffffffffffffffffff1673ffffffffffffffffffffffffffffffffffffffff168152602001908152602001600020600301805480602002602001604051908101604052809291908181526020016000905b82821015610bb25783829060005260206000209060020201604051806040016040529081600082018054610acb9061140a565b80601f0160208091040260200160405190810160405280929190818152602001828054610af79061140a565b8015610b445780601f10610b1957610100808354040283529160200191610b44565b820191906000526020600020905b815481529060010190602001808311610b2757829003601f168201915b505050505081526020016001820160009054906101000a900473ffffffffffffffffffffffffffffffffffffffff1673ffffffffffffffffffffffffffffffffffffffff1673ffffffffffffffffffffffffffffffffffffffff168152505081526020019060010190610a98565b50505050905090565b828054610bc79061140a565b90600052602060002090601f016020900481019282610be95760008555610c30565b82601f10610c0257805160ff1916838001178555610c30565b82800160010185558215610c30579182015b82811115610c2f578251825591602001919060010190610c14565b5b509050610c3d9190610c41565b5090565b5b80821115610c5a576000816000905550600101610c42565b5090565b6000610c71610c6c8461121f565b6111ee565b905082815260208101848484011115610c8957600080fd5b610c948482856113c8565b509392505050565b600081359050610cab816114da565b92915050565b600081359050610cc0816114f1565b92915050565b600082601f830112610cd757600080fd5b8135610ce7848260208601610c5e565b91505092915050565b600081359050610cff81611508565b92915050565b600060208284031215610d1757600080fd5b6000610d2584828501610c9c565b91505092915050565b60008060408385031215610d4157600080fd5b6000610d4f85828601610cb1565b925050602083013567ffffffffffffffff811115610d6c57600080fd5b610d7885828601610cc6565b9150509250929050565b60008060008060808587031215610d9857600080fd5b6000610da687828801610cb1565b9450506020610db787828801610cf0565b935050604085013567ffffffffffffffff811115610dd457600080fd5b610de087828801610cc6565b925050606085013567ffffffffffffffff811115610dfd57600080fd5b610e0987828801610cc6565b91505092959194509250565b600060208284031215610e2757600080fd5b6000610e3584828501610cf0565b91505092915050565b6000610e4a8383610ffe565b905092915050565b6000610e5e838361103b565b905092915050565b610e6f81611392565b82525050565b610e7e81611356565b82525050565b610e8d81611344565b82525050565b610e9c81611344565b82525050565b6000610ead8261126f565b610eb781856112aa565b935083602082028501610ec98561124f565b8060005b85811015610f055784840389528151610ee68582610e3e565b9450610ef183611290565b925060208a01995050600181019050610ecd565b50829750879550505050505092915050565b6000610f228261127a565b610f2c81856112bb565b935083602082028501610f3e8561125f565b8060005b85811015610f7a5784840389528151610f5b8582610e52565b9450610f668361129d565b925060208a01995050600181019050610f42565b50829750879550505050505092915050565b6000610f9782611285565b610fa181856112cc565b9350610fb18185602086016113d7565b610fba816114c9565b840191505092915050565b6000610fd082611285565b610fda81856112dd565b9350610fea8185602086016113d7565b610ff3816114c9565b840191505092915050565b6000604083016000830151848203600086015261101b8282610f8c565b91505060208301516110306020860182610e75565b508091505092915050565b600060c0830160008301516110536000860182610e84565b5060208301516110666020860182610e84565b50604083015161107960408601826110cb565b50606083015184820360608601526110918282610f8c565b91505060808301516110a660808601826110cb565b5060a083015184820360a08601526110be8282610f8c565b9150508091505092915050565b6110d481611388565b82525050565b6110e381611388565b82525050565b600060c0820190506110fe6000830189610e93565b61110b6020830188610e66565b61111860408301876110da565b818103606083015261112a8186610fc5565b905061113960808301856110da565b81810360a083015261114b8184610fc5565b9050979650505050505050565b600060608201905061116d6000830186610e93565b61117a60208301856110da565b61118760408301846110da565b949350505050565b600060208201905081810360008301526111a98184610ea2565b905092915050565b600060208201905081810360008301526111cb8184610f17565b905092915050565b60006020820190506111e860008301846110da565b92915050565b6000604051905081810181811067ffffffffffffffff821117156112155761121461149a565b5b8060405250919050565b600067ffffffffffffffff82111561123a5761123961149a565b5b601f19601f8301169050602081019050919050565b6000819050602082019050919050565b6000819050602082019050919050565b600081519050919050565b600081519050919050565b600081519050919050565b6000602082019050919050565b6000602082019050919050565b600082825260208201905092915050565b600082825260208201905092915050565b600082825260208201905092915050565b600082825260208201905092915050565b60006112f982611388565b915061130483611388565b9250827fffffffffffffffffffffffffffffffffffffffffffffffffffffffffffffffff038211156113395761133861143c565b5b828201905092915050565b600061134f82611368565b9050919050565b600061136182611368565b9050919050565b600073ffffffffffffffffffffffffffffffffffffffff82169050919050565b6000819050919050565b600061139d826113a4565b9050919050565b60006113af826113b6565b9050919050565b60006113c182611368565b9050919050565b82818337600083830152505050565b60005b838110156113f55780820151818401526020810190506113da565b83811115611404576000848401525b50505050565b6000600282049050600182168061142257607f821691505b602082108114156114365761143561146b565b5b50919050565b7f4e487b7100000000000000000000000000000000000000000000000000000000600052601160045260246000fd5b7f4e487b7100000000000000000000000000000000000000000000000000000000600052602260045260246000fd5b7f4e487b7100000000000000000000000000000000000000000000000000000000600052604160045260246000fd5b6000601f19601f8301169050919050565b6114e381611344565b81146114ee57600080fd5b50565b6114fa81611356565b811461150557600080fd5b50565b61151181611388565b811461151c57600080fd5b5056fea2646970667358221220195199982a24a3dce40d43c12bc6a7f7d1a3a8eba79bf3447916603806b863ea64736f6c63430008000033",
  "linkReferences": {},
  "deployedLinkReferences": {}
}